{
  "contractName": "Businesses",
  "abi": [
    {
      "inputs": [
        {
          "internalType": "address",
          "name": "_nftContractAddress",
          "type": "address"
        },
        {
          "internalType": "address",
          "name": "_collectionsContractAddress",
          "type": "address"
        }
      ],
      "stateMutability": "nonpayable",
      "type": "constructor"
    },
    {
      "anonymous": false,
      "inputs": [
        {
          "indexed": false,
          "internalType": "uint256",
          "name": "bId",
          "type": "uint256"
        },
        {
          "indexed": false,
          "internalType": "string",
          "name": "bName",
          "type": "string"
        },
        {
          "indexed": false,
          "internalType": "uint256",
          "name": "feePercent",
          "type": "uint256"
        },
        {
          "indexed": false,
          "internalType": "address",
          "name": "admin",
          "type": "address"
        }
      ],
      "name": "businessCreated",
      "type": "event"
    },
    {
      "anonymous": false,
      "inputs": [
        {
          "indexed": false,
          "internalType": "uint256",
          "name": "bId",
          "type": "uint256"
        },
        {
          "indexed": false,
          "internalType": "uint256",
          "name": "newFeePercent",
          "type": "uint256"
        },
        {
          "indexed": false,
          "internalType": "address",
          "name": "admin",
          "type": "address"
        }
      ],
      "name": "businessFeeUpdated",
      "type": "event"
    },
    {
      "anonymous": false,
      "inputs": [
        {
          "indexed": false,
          "internalType": "uint256",
          "name": "bId",
          "type": "uint256"
        },
        {
          "indexed": false,
          "internalType": "address",
          "name": "admin",
          "type": "address"
        }
      ],
      "name": "businessRemoved",
      "type": "event"
    },
    {
      "anonymous": false,
      "inputs": [
        {
          "indexed": false,
          "internalType": "uint256",
          "name": "bId",
          "type": "uint256"
        },
        {
          "indexed": false,
          "internalType": "uint256",
          "name": "cId",
          "type": "uint256"
        },
        {
          "indexed": false,
          "internalType": "address",
          "name": "admin",
          "type": "address"
        }
      ],
      "name": "collectionAddedToBusiness",
      "type": "event"
    },
    {
      "anonymous": false,
      "inputs": [
        {
          "indexed": false,
          "internalType": "uint256",
          "name": "bId",
          "type": "uint256"
        },
        {
          "indexed": false,
          "internalType": "uint256",
          "name": "cId",
          "type": "uint256"
        },
        {
          "indexed": false,
          "internalType": "address",
          "name": "admin",
          "type": "address"
        }
      ],
      "name": "collectionRemovedFromBusiness",
      "type": "event"
    },
    {
      "anonymous": false,
      "inputs": [
        {
          "indexed": false,
          "internalType": "uint256",
          "name": "bId",
          "type": "uint256"
        },
        {
          "indexed": false,
          "internalType": "address",
          "name": "eAddress",
          "type": "address"
        },
        {
          "indexed": false,
          "internalType": "address",
          "name": "admin",
          "type": "address"
        }
      ],
      "name": "employeeAddedToBusiness",
      "type": "event"
    },
    {
      "anonymous": false,
      "inputs": [
        {
          "indexed": false,
          "internalType": "uint256",
          "name": "bId",
          "type": "uint256"
        },
        {
          "indexed": false,
          "internalType": "address",
          "name": "eAddress",
          "type": "address"
        },
        {
          "indexed": false,
          "internalType": "address",
          "name": "admin",
          "type": "address"
        }
      ],
      "name": "employeeRemovedFromBusiness",
      "type": "event"
    },
    {
      "anonymous": false,
      "inputs": [
        {
          "indexed": false,
          "internalType": "uint256",
          "name": "bId",
          "type": "uint256"
        },
        {
          "indexed": false,
          "internalType": "uint256",
          "name": "nftId",
          "type": "uint256"
        },
        {
          "indexed": false,
          "internalType": "address",
          "name": "admin",
          "type": "address"
        }
      ],
      "name": "nftAddedToBusiness",
      "type": "event"
    },
    {
      "anonymous": false,
      "inputs": [
        {
          "indexed": false,
          "internalType": "uint256",
          "name": "bId",
          "type": "uint256"
        },
        {
          "indexed": false,
          "internalType": "uint256",
          "name": "nftId",
          "type": "uint256"
        },
        {
          "indexed": false,
          "internalType": "address",
          "name": "admin",
          "type": "address"
        }
      ],
      "name": "nftRemovedFromBusiness",
      "type": "event"
    },
    {
      "inputs": [],
      "name": "_businessIdGenerator",
      "outputs": [
        {
          "internalType": "uint256",
          "name": "_value",
          "type": "uint256"
        }
      ],
      "stateMutability": "view",
      "type": "function",
      "constant": true
    },
    {
      "inputs": [],
      "name": "businessCount",
      "outputs": [
        {
          "internalType": "uint256",
          "name": "",
          "type": "uint256"
        }
      ],
      "stateMutability": "view",
      "type": "function",
      "constant": true
    },
    {
      "inputs": [
        {
          "internalType": "uint256",
          "name": "",
          "type": "uint256"
        }
      ],
      "name": "businessIdToIndex",
      "outputs": [
        {
          "internalType": "uint256",
          "name": "",
          "type": "uint256"
        }
      ],
      "stateMutability": "view",
      "type": "function",
      "constant": true
    },
    {
      "inputs": [
        {
          "internalType": "uint256",
          "name": "",
          "type": "uint256"
        }
      ],
      "name": "businesses",
      "outputs": [
        {
          "internalType": "uint256",
          "name": "businessId",
          "type": "uint256"
        },
        {
          "internalType": "string",
          "name": "businessName",
          "type": "string"
        },
        {
          "internalType": "string",
          "name": "businessLogoUri",
          "type": "string"
        },
        {
          "internalType": "uint256",
          "name": "feePercent",
          "type": "uint256"
        },
        {
          "internalType": "address",
          "name": "adminAddress",
          "type": "address"
        },
        {
          "internalType": "uint256",
          "name": "collectionCount",
          "type": "uint256"
        },
        {
          "internalType": "uint256",
          "name": "singleNftCount",
          "type": "uint256"
        }
      ],
      "stateMutability": "view",
      "type": "function",
      "constant": true
    },
    {
      "inputs": [
        {
          "internalType": "uint256",
          "name": "",
          "type": "uint256"
        }
      ],
      "name": "collectionIdToBusinessId",
      "outputs": [
        {
          "internalType": "uint256",
          "name": "",
          "type": "uint256"
        }
      ],
      "stateMutability": "view",
      "type": "function",
      "constant": true
    },
    {
      "inputs": [
        {
          "internalType": "uint256",
          "name": "",
          "type": "uint256"
        }
      ],
      "name": "collectionIdToIndex",
      "outputs": [
        {
          "internalType": "uint256",
          "name": "",
          "type": "uint256"
        }
      ],
      "stateMutability": "view",
      "type": "function",
      "constant": true
    },
    {
      "inputs": [
        {
          "internalType": "address",
          "name": "",
          "type": "address"
        }
      ],
      "name": "employeeAddressToBusinessId",
      "outputs": [
        {
          "internalType": "uint256",
          "name": "",
          "type": "uint256"
        }
      ],
      "stateMutability": "view",
      "type": "function",
      "constant": true
    },
    {
      "inputs": [
        {
          "internalType": "address",
          "name": "",
          "type": "address"
        }
      ],
      "name": "employeeAddressToIndex",
      "outputs": [
        {
          "internalType": "uint256",
          "name": "",
          "type": "uint256"
        }
      ],
      "stateMutability": "view",
      "type": "function",
      "constant": true
    },
    {
      "inputs": [
        {
          "internalType": "uint256",
          "name": "",
          "type": "uint256"
        }
      ],
      "name": "nftIdToBusinessId",
      "outputs": [
        {
          "internalType": "uint256",
          "name": "",
          "type": "uint256"
        }
      ],
      "stateMutability": "view",
      "type": "function",
      "constant": true
    },
    {
      "inputs": [
        {
          "internalType": "uint256",
          "name": "",
          "type": "uint256"
        }
      ],
      "name": "nftIdToIndex",
      "outputs": [
        {
          "internalType": "uint256",
          "name": "",
          "type": "uint256"
        }
      ],
      "stateMutability": "view",
      "type": "function",
      "constant": true
    },
    {
      "inputs": [
        {
          "internalType": "address",
          "name": "_marketplaceContractAddress",
          "type": "address"
        },
        {
          "internalType": "address",
          "name": "_superAdmin",
          "type": "address"
        }
      ],
      "name": "setMarketplaceAddress",
      "outputs": [],
      "stateMutability": "nonpayable",
      "type": "function"
    },
    {
      "inputs": [
        {
          "internalType": "string",
          "name": "_bName",
          "type": "string"
        },
        {
          "internalType": "string",
          "name": "_bLogoUri",
          "type": "string"
        },
        {
          "internalType": "uint256",
          "name": "_feePercent",
          "type": "uint256"
        },
        {
          "internalType": "address",
          "name": "_admin",
          "type": "address"
        },
        {
          "internalType": "address[]",
          "name": "_employees",
          "type": "address[]"
        }
      ],
      "name": "addBusiness",
      "outputs": [
        {
          "internalType": "uint256",
          "name": "",
          "type": "uint256"
        }
      ],
      "stateMutability": "nonpayable",
      "type": "function"
    },
    {
      "inputs": [
        {
          "internalType": "uint256",
          "name": "_bId",
          "type": "uint256"
        }
      ],
      "name": "removeBusiness",
      "outputs": [],
      "stateMutability": "nonpayable",
      "type": "function"
    },
    {
      "inputs": [
        {
          "internalType": "uint256",
          "name": "_bId",
          "type": "uint256"
        },
        {
          "internalType": "uint256",
          "name": "_cId",
          "type": "uint256"
        }
      ],
      "name": "addCollectionToBusiness",
      "outputs": [],
      "stateMutability": "nonpayable",
      "type": "function"
    },
    {
      "inputs": [
        {
          "internalType": "uint256",
          "name": "_bId",
          "type": "uint256"
        },
        {
          "internalType": "uint256[]",
          "name": "_cIds",
          "type": "uint256[]"
        }
      ],
      "name": "addMultipleCollectionsToBusiness",
      "outputs": [],
      "stateMutability": "nonpayable",
      "type": "function"
    },
    {
      "inputs": [
        {
          "internalType": "uint256",
          "name": "_bId",
          "type": "uint256"
        },
        {
          "internalType": "string",
          "name": "_cName",
          "type": "string"
        },
        {
          "internalType": "string",
          "name": "_cCoverImageUri",
          "type": "string"
        },
        {
          "internalType": "string",
          "name": "_cBackgroundUri",
          "type": "string"
        },
        {
          "internalType": "string",
          "name": "_cDescription",
          "type": "string"
        },
        {
          "internalType": "string",
          "name": "_cOwnerName",
          "type": "string"
        },
        {
          "internalType": "uint256[]",
          "name": "_tokenIds",
          "type": "uint256[]"
        },
        {
          "internalType": "string",
          "name": "_category",
          "type": "string"
        }
      ],
      "name": "createCollectionInBusiness",
      "outputs": [],
      "stateMutability": "nonpayable",
      "type": "function"
    },
    {
      "inputs": [
        {
          "internalType": "uint256",
          "name": "_bId",
          "type": "uint256"
        },
        {
          "internalType": "uint256",
          "name": "_nId",
          "type": "uint256"
        }
      ],
      "name": "addNftToBusiness",
      "outputs": [],
      "stateMutability": "nonpayable",
      "type": "function"
    },
    {
      "inputs": [
        {
          "internalType": "uint256",
          "name": "_bId",
          "type": "uint256"
        },
        {
          "internalType": "uint256[]",
          "name": "_nIds",
          "type": "uint256[]"
        }
      ],
      "name": "addMultipleNftsToBusiness",
      "outputs": [],
      "stateMutability": "nonpayable",
      "type": "function"
    },
    {
      "inputs": [
        {
          "internalType": "uint256",
          "name": "_bId",
          "type": "uint256"
        },
        {
          "internalType": "string",
          "name": "_tokenUri",
          "type": "string"
        },
        {
          "internalType": "uint256",
          "name": "_price",
          "type": "uint256"
        },
        {
          "internalType": "string",
          "name": "_category",
          "type": "string"
        },
        {
          "internalType": "string",
          "name": "_coverUri",
          "type": "string"
        }
      ],
      "name": "createNftInBusiness",
      "outputs": [],
      "stateMutability": "nonpayable",
      "type": "function"
    },
    {
      "inputs": [
        {
          "internalType": "uint256",
          "name": "_bId",
          "type": "uint256"
        },
        {
          "internalType": "uint256",
          "name": "_cId",
          "type": "uint256"
        }
      ],
      "name": "removeCollectionFromBusiness",
      "outputs": [],
      "stateMutability": "nonpayable",
      "type": "function"
    },
    {
      "inputs": [
        {
          "internalType": "uint256",
          "name": "_bId",
          "type": "uint256"
        },
        {
          "internalType": "uint256",
          "name": "_nftId",
          "type": "uint256"
        }
      ],
      "name": "removeNftFromBusiness",
      "outputs": [],
      "stateMutability": "nonpayable",
      "type": "function"
    },
    {
      "inputs": [
        {
          "internalType": "uint256",
          "name": "_bId",
          "type": "uint256"
        },
        {
          "internalType": "uint256",
          "name": "_newFee",
          "type": "uint256"
        }
      ],
      "name": "updateFeePercent",
      "outputs": [],
      "stateMutability": "nonpayable",
      "type": "function"
    },
    {
      "inputs": [
        {
          "internalType": "uint256",
          "name": "_bId",
          "type": "uint256"
        },
        {
          "internalType": "address",
          "name": "_newEmployee",
          "type": "address"
        }
      ],
      "name": "addEmployee",
      "outputs": [],
      "stateMutability": "nonpayable",
      "type": "function"
    },
    {
      "inputs": [
        {
          "internalType": "uint256",
          "name": "_bId",
          "type": "uint256"
        },
        {
          "internalType": "address",
          "name": "_eAddress",
          "type": "address"
        }
      ],
      "name": "removeEmployee",
      "outputs": [],
      "stateMutability": "nonpayable",
      "type": "function"
    },
    {
      "inputs": [
        {
          "internalType": "uint256",
          "name": "_bId",
          "type": "uint256"
        }
      ],
      "name": "getCollectionsInBusiness",
      "outputs": [
        {
          "internalType": "uint256[]",
          "name": "",
          "type": "uint256[]"
        }
      ],
      "stateMutability": "view",
      "type": "function",
      "constant": true
    },
    {
      "inputs": [
        {
          "internalType": "uint256",
          "name": "_bId",
          "type": "uint256"
        }
      ],
      "name": "getNftsInBusiness",
      "outputs": [
        {
          "internalType": "uint256[]",
          "name": "",
          "type": "uint256[]"
        }
      ],
      "stateMutability": "view",
      "type": "function",
      "constant": true
    },
    {
      "inputs": [
        {
          "internalType": "uint256",
          "name": "_bId",
          "type": "uint256"
        }
      ],
      "name": "getEmployeesinBusiness",
      "outputs": [
        {
          "internalType": "address[]",
          "name": "",
          "type": "address[]"
        }
      ],
      "stateMutability": "view",
      "type": "function",
      "constant": true
    },
    {
      "inputs": [
        {
          "internalType": "uint256",
          "name": "_bId",
          "type": "uint256"
        },
        {
          "internalType": "uint256",
          "name": "_id",
          "type": "uint256"
        },
        {
          "internalType": "bool",
          "name": "isNft",
          "type": "bool"
        }
      ],
      "name": "collectionOrNftOwnedByOwnerOrEmployee",
      "outputs": [
        {
          "internalType": "bool",
          "name": "",
          "type": "bool"
        }
      ],
      "stateMutability": "view",
      "type": "function",
      "constant": true
    }
  ],
  "bytecode": "0x60806040523480156200001157600080fd5b50604051620060e2380380620060e28339818101604052810190620000379190620000e0565b600160008190555081600260006101000a81548173ffffffffffffffffffffffffffffffffffffffff021916908373ffffffffffffffffffffffffffffffffffffffff16021790555080600360006101000a81548173ffffffffffffffffffffffffffffffffffffffff021916908373ffffffffffffffffffffffffffffffffffffffff16021790555050506200017a565b600081519050620000da8162000160565b92915050565b60008060408385031215620000fa57620000f96200015b565b5b60006200010a85828601620000c9565b92505060206200011d85828601620000c9565b9150509250929050565b600062000134826200013b565b9050919050565b600073ffffffffffffffffffffffffffffffffffffffff82169050919050565b600080fd5b6200016b8162000127565b81146200017757600080fd5b50565b615f58806200018a6000396000f3fe608060405234801561001057600080fd5b50600436106101c45760003560e01c80636474263c116100f9578063b984c6ec11610097578063da2aff2a11610071578063da2aff2a1461054d578063dbd4c8e61461056b578063dc00148c14610587578063ed7158c8146105b7576101c4565b8063b984c6ec146104df578063c696446e14610515578063ce01cc6514610531576101c4565b8063830f8156116100d3578063830f81561461045957806384ea524d146104775780639f4bca89146104a7578063a8bc63de146104c3576101c4565b80636474263c146103f15780637311dda714610421578063773d62461461043d576101c4565b8063380531c7116101665780633f3503b8116101405780633f3503b81461036d57806341d3a50314610389578063633c0366146103a557806364608da2146103d5576101c4565b8063380531c7146102f1578063397914c6146103215780633f262d771461033d576101c4565b806310e713e6116101a257806310e713e6146102595780631df97125146102895780632fc71565146102a557806330c48e23146102c1576101c4565b806301b166e2146101c95780630788935e146101f957806308f8080914610229575b600080fd5b6101e360048036038101906101de9190614779565b6105e7565b6040516101f0919061536d565b60405180910390f35b610213600480360381019061020e9190614779565b6105ff565b6040516102209190614f99565b60405180910390f35b610243600480360381019061023e9190614779565b6106db565b604051610250919061536d565b60405180910390f35b610273600480360381019061026e9190614779565b6106f3565b604051610280919061536d565b60405180910390f35b6102a3600480360381019061029e9190614ab8565b61070b565b005b6102bf60048036038101906102ba919061466a565b610b00565b005b6102db60048036038101906102d69190614610565b610dfb565b6040516102e8919061536d565b60405180910390f35b61030b60048036038101906103069190614779565b610e13565b6040516103189190614f99565b60405180910390f35b61033b600480360381019061033691906147d3565b610eef565b005b61035760048036038101906103529190614779565b6114fb565b604051610364919061536d565b60405180910390f35b61038760048036038101906103829190614813565b611513565b005b6103a3600480360381019061039e91906147d3565b61155b565b005b6103bf60048036038101906103ba9190614779565b61186f565b6040516103cc919061536d565b60405180910390f35b6103ef60048036038101906103ea9190614ab8565b611887565b005b61040b60048036038101906104069190614af8565b611eab565b6040516104189190614fbb565b60405180910390f35b61043b60048036038101906104369190614ab8565b6121bb565b005b610457600480360381019061045291906149e9565b6127e5565b005b6104616129c5565b60405161046e919061536d565b60405180910390f35b610491600480360381019061048c9190614779565b6129d1565b60405161049e9190614f77565b60405180910390f35b6104c160048036038101906104bc9190614779565b612ae3565b005b6104dd60048036038101906104d89190614ab8565b613536565b005b6104f960048036038101906104f49190614779565b6136b0565b60405161050c97969594939291906153e8565b60405180910390f35b61052f600480360381019061052a9190614ab8565b613832565b005b61054b60048036038101906105469190614813565b613ad8565b005b610555613b20565b604051610562919061536d565b60405180910390f35b6105856004803603810190610580919061486f565b613b26565b005b6105a1600480360381019061059c9190614610565b613d1c565b6040516105ae919061536d565b60405180910390f35b6105d160048036038101906105cc91906146aa565b613d34565b6040516105de919061536d565b60405180910390f35b60096020528060005260406000206000915090505481565b606060006005541415610647576040517f08c379a000000000000000000000000000000000000000000000000000000000815260040161063e9061528d565b60405180910390fd5b600060066000848152602001908152602001600020549050600481815481106106735761067261589b565b5b90600052602060002090600a02016008018054806020026020016040519081016040528092919081815260200182805480156106ce57602002820191906000526020600020905b8154815260200190600101908083116106ba575b5050505050915050919050565b600a6020528060005260406000206000915090505481565b60066020528060005260406000206000915090505481565b60026000541415610751576040517f08c379a0000000000000000000000000000000000000000000000000000000008152600401610748906152ed565b60405180910390fd5b60026000819055506000600660008481526020019081526020016000205490506000600260009054906101000a900473ffffffffffffffffffffffffffffffffffffffff1673ffffffffffffffffffffffffffffffffffffffff1663b9971b5d846040518263ffffffff1660e01b81526004016107ce919061536d565b60206040518083038186803b1580156107e657600080fd5b505afa1580156107fa573d6000803e3d6000fd5b505050506040513d601f19601f8201168201806040525081019061081e919061463d565b9050600482815481106108345761083361589b565b5b90600052602060002090600a020160040160009054906101000a900473ffffffffffffffffffffffffffffffffffffffff1673ffffffffffffffffffffffffffffffffffffffff163373ffffffffffffffffffffffffffffffffffffffff1614806108dd575083600c60008373ffffffffffffffffffffffffffffffffffffffff1673ffffffffffffffffffffffffffffffffffffffff16815260200190815260200160002054145b61091c576040517f08c379a0000000000000000000000000000000000000000000000000000000008152600401610913906151cd565b60405180910390fd5b61092884846001611eab565b610967576040517f08c379a000000000000000000000000000000000000000000000000000000000815260040161095e906152cd565b60405180910390fd5b6004828154811061097b5761097a61589b565b5b90600052602060002090600a02016007018390806001815401808255809150506001900390600052602060002001600090919091909150556001600483815481106109c9576109c861589b565b5b90600052602060002090600a0201600601546109e59190615624565b600483815481106109f9576109f861589b565b5b90600052602060002090600a020160060181905550836008600085815260200190815260200160002081905550600160048381548110610a3c57610a3b61589b565b5b90600052602060002090600a020160070180549050610a5b919061567a565b60076000858152602001908152602001600020819055507f9c4a7b1eb9fa1944bfcce86c86e220c9bfc05f63640b10afc39ea6ba8015b85e848460048581548110610aa957610aa861589b565b5b90600052602060002090600a020160040160009054906101000a900473ffffffffffffffffffffffffffffffffffffffff16604051610aea939291906154b1565b60405180910390a1505060016000819055505050565b60026000541415610b46576040517f08c379a0000000000000000000000000000000000000000000000000000000008152600401610b3d906152ed565b60405180910390fd5b6002600081905550600073ffffffffffffffffffffffffffffffffffffffff16600d60009054906101000a900473ffffffffffffffffffffffffffffffffffffffff1673ffffffffffffffffffffffffffffffffffffffff1614610d0a57600e60009054906101000a900473ffffffffffffffffffffffffffffffffffffffff1673ffffffffffffffffffffffffffffffffffffffff166329575f6a6040518163ffffffff1660e01b815260040160206040518083038186803b158015610c0c57600080fd5b505afa158015610c20573d6000803e3d6000fd5b505050506040513d601f19601f82011682018060405250810190610c44919061463d565b73ffffffffffffffffffffffffffffffffffffffff163373ffffffffffffffffffffffffffffffffffffffff161480610cca5750600d60009054906101000a900473ffffffffffffffffffffffffffffffffffffffff1673ffffffffffffffffffffffffffffffffffffffff163373ffffffffffffffffffffffffffffffffffffffff16145b610d09576040517f08c379a0000000000000000000000000000000000000000000000000000000008152600401610d009061522d565b60405180910390fd5b5b81600d60006101000a81548173ffffffffffffffffffffffffffffffffffffffff021916908373ffffffffffffffffffffffffffffffffffffffff160217905550600d60009054906101000a900473ffffffffffffffffffffffffffffffffffffffff16600e60006101000a81548173ffffffffffffffffffffffffffffffffffffffff021916908373ffffffffffffffffffffffffffffffffffffffff16021790555080600f60006101000a81548173ffffffffffffffffffffffffffffffffffffffff021916908373ffffffffffffffffffffffffffffffffffffffff16021790555060016000819055505050565b600b6020528060005260406000206000915090505481565b606060006005541415610e5b576040517f08c379a0000000000000000000000000000000000000000000000000000000008152600401610e529061528d565b60405180910390fd5b60006006600084815260200190815260200160002054905060048181548110610e8757610e8661589b565b5b90600052602060002090600a0201600701805480602002602001604051908101604052809291908181526020018280548015610ee257602002820191906000526020600020905b815481526020019060010190808311610ece575b5050505050915050919050565b60006006600084815260200190815260200160002054905060048181548110610f1b57610f1a61589b565b5b90600052602060002090600a020160040160009054906101000a900473ffffffffffffffffffffffffffffffffffffffff1673ffffffffffffffffffffffffffffffffffffffff163373ffffffffffffffffffffffffffffffffffffffff1614610fba576040517f08c379a0000000000000000000000000000000000000000000000000000000008152600401610fb19061524d565b60405180910390fd5b600c60008373ffffffffffffffffffffffffffffffffffffffff1673ffffffffffffffffffffffffffffffffffffffff16815260200190815260200160002054831461103b576040517f08c379a00000000000000000000000000000000000000000000000000000000081526004016110329061526d565b60405180910390fd5b6000600b60008473ffffffffffffffffffffffffffffffffffffffff1673ffffffffffffffffffffffffffffffffffffffff1681526020019081526020016000205490506000600483815481106110955761109461589b565b5b90600052602060002090600a020160090182815481106110b8576110b761589b565b5b9060005260206000200160009054906101000a900473ffffffffffffffffffffffffffffffffffffffff169050600483815481106110f9576110f861589b565b5b90600052602060002090600a02016009016001600485815481106111205761111f61589b565b5b90600052602060002090600a02016009018054905061113f919061567a565b815481106111505761114f61589b565b5b9060005260206000200160009054906101000a900473ffffffffffffffffffffffffffffffffffffffff166004848154811061118f5761118e61589b565b5b90600052602060002090600a020160090183815481106111b2576111b161589b565b5b9060005260206000200160006101000a81548173ffffffffffffffffffffffffffffffffffffffff021916908373ffffffffffffffffffffffffffffffffffffffff160217905550806004848154811061120f5761120e61589b565b5b90600052602060002090600a02016009016001600486815481106112365761123561589b565b5b90600052602060002090600a020160090180549050611255919061567a565b815481106112665761126561589b565b5b9060005260206000200160006101000a81548173ffffffffffffffffffffffffffffffffffffffff021916908373ffffffffffffffffffffffffffffffffffffffff160217905550600483815481106112c2576112c161589b565b5b90600052602060002090600a02016009018054806112e3576112e261586c565b5b6001900381819060005260206000200160006101000a81549073ffffffffffffffffffffffffffffffffffffffff02191690559055600b60008573ffffffffffffffffffffffffffffffffffffffff1673ffffffffffffffffffffffffffffffffffffffff16815260200190815260200160002060009055600c60008573ffffffffffffffffffffffffffffffffffffffff1673ffffffffffffffffffffffffffffffffffffffff168152602001908152602001600020600090556000600484815481106113b4576113b361589b565b5b90600052602060002090600a020160090180549050146114745781600b6000600486815481106113e7576113e661589b565b5b90600052602060002090600a0201600901858154811061140a5761140961589b565b5b9060005260206000200160009054906101000a900473ffffffffffffffffffffffffffffffffffffffff1673ffffffffffffffffffffffffffffffffffffffff1673ffffffffffffffffffffffffffffffffffffffff168152602001908152602001600020819055505b7f360cf11b3e0e6572cc90b07a249c2e1ae9afdd699ad9315874aedaa71be331a68585600486815481106114ab576114aa61589b565b5b90600052602060002090600a020160040160009054906101000a900473ffffffffffffffffffffffffffffffffffffffff166040516114ec939291906153b1565b60405180910390a15050505050565b60076020528060005260406000206000915090505481565b60005b815181101561155657611543838383815181106115365761153561589b565b5b602002602001015161070b565b808061154e906157c5565b915050611516565b505050565b600060066000848152602001908152602001600020549050600481815481106115875761158661589b565b5b90600052602060002090600a020160040160009054906101000a900473ffffffffffffffffffffffffffffffffffffffff1673ffffffffffffffffffffffffffffffffffffffff163373ffffffffffffffffffffffffffffffffffffffff1614611626576040517f08c379a000000000000000000000000000000000000000000000000000000000815260040161161d906150ed565b60405180910390fd5b6000600c60008473ffffffffffffffffffffffffffffffffffffffff1673ffffffffffffffffffffffffffffffffffffffff16815260200190815260200160002054146116a8576040517f08c379a000000000000000000000000000000000000000000000000000000000815260040161169f906151ad565b60405180910390fd5b600481815481106116bc576116bb61589b565b5b90600052602060002090600a0201600901829080600181540180825580915050600190039060005260206000200160009091909190916101000a81548173ffffffffffffffffffffffffffffffffffffffff021916908373ffffffffffffffffffffffffffffffffffffffff16021790555082600c60008473ffffffffffffffffffffffffffffffffffffffff1673ffffffffffffffffffffffffffffffffffffffff168152602001908152602001600020819055506001600482815481106117885761178761589b565b5b90600052602060002090600a0201600901805490506117a7919061567a565b600b60008473ffffffffffffffffffffffffffffffffffffffff1673ffffffffffffffffffffffffffffffffffffffff168152602001908152602001600020819055507f594fdd33e217ee870f0aefcf15874f82f79b5024416aed3358ccb666179448ca8383600484815481106118215761182061589b565b5b90600052602060002090600a020160040160009054906101000a900473ffffffffffffffffffffffffffffffffffffffff16604051611862939291906153b1565b60405180910390a1505050565b60086020528060005260406000206000915090505481565b600260005414156118cd576040517f08c379a00000000000000000000000000000000000000000000000000000000081526004016118c4906152ed565b60405180910390fd5b60026000819055506000600660008481526020019081526020016000205490506000600360009054906101000a900473ffffffffffffffffffffffffffffffffffffffff1673ffffffffffffffffffffffffffffffffffffffff1663b0ff4603846040518263ffffffff1660e01b815260040161194a919061536d565b60206040518083038186803b15801561196257600080fd5b505afa158015611976573d6000803e3d6000fd5b505050506040513d601f19601f8201168201806040525081019061199a919061463d565b9050600482815481106119b0576119af61589b565b5b90600052602060002090600a020160040160009054906101000a900473ffffffffffffffffffffffffffffffffffffffff1673ffffffffffffffffffffffffffffffffffffffff163373ffffffffffffffffffffffffffffffffffffffff161480611a685750600d60009054906101000a900473ffffffffffffffffffffffffffffffffffffffff1673ffffffffffffffffffffffffffffffffffffffff163373ffffffffffffffffffffffffffffffffffffffff16145b80611a9e57508073ffffffffffffffffffffffffffffffffffffffff163373ffffffffffffffffffffffffffffffffffffffff16145b611add576040517f08c379a0000000000000000000000000000000000000000000000000000000008152600401611ad49061514d565b60405180910390fd5b600a6000848152602001908152602001600020548414611b32576040517f08c379a0000000000000000000000000000000000000000000000000000000008152600401611b299061520d565b60405180910390fd5b600060096000858152602001908152602001600020549050600160048481548110611b6057611b5f61589b565b5b90600052602060002090600a0201600501541115611d4857600060048481548110611b8e57611b8d61589b565b5b90600052602060002090600a02016008018281548110611bb157611bb061589b565b5b9060005260206000200154905060048481548110611bd257611bd161589b565b5b90600052602060002090600a0201600801600160048681548110611bf957611bf861589b565b5b90600052602060002090600a020160050154611c15919061567a565b81548110611c2657611c2561589b565b5b906000526020600020015460048581548110611c4557611c4461589b565b5b90600052602060002090600a02016008018381548110611c6857611c6761589b565b5b90600052602060002001819055508060048581548110611c8b57611c8a61589b565b5b90600052602060002090600a0201600801600160048781548110611cb257611cb161589b565b5b90600052602060002090600a020160050154611cce919061567a565b81548110611cdf57611cde61589b565b5b9060005260206000200181905550816009600060048781548110611d0657611d0561589b565b5b90600052602060002090600a02016008018581548110611d2957611d2861589b565b5b9060005260206000200154815260200190815260200160002081905550505b60048381548110611d5c57611d5b61589b565b5b90600052602060002090600a0201600801805480611d7d57611d7c61586c565b5b60019003818190600052602060002001600090559055600160048481548110611da957611da861589b565b5b90600052602060002090600a020160050154611dc5919061567a565b60048481548110611dd957611dd861589b565b5b90600052602060002090600a0201600501819055506009600085815260200190815260200160002060009055600a6000858152602001908152602001600020600090557fbd55462672a2d76693921f127922e2b1d60e216b9dd9dae59aea54621b53ffe5858560048681548110611e5357611e5261589b565b5b90600052602060002090600a020160040160009054906101000a900473ffffffffffffffffffffffffffffffffffffffff16604051611e94939291906154b1565b60405180910390a150505060016000819055505050565b6000808215611f6657600260009054906101000a900473ffffffffffffffffffffffffffffffffffffffff1673ffffffffffffffffffffffffffffffffffffffff1663b9971b5d856040518263ffffffff1660e01b8152600401611f0f919061536d565b60206040518083038186803b158015611f2757600080fd5b505afa158015611f3b573d6000803e3d6000fd5b505050506040513d601f19601f82011682018060405250810190611f5f919061463d565b9050612014565b600360009054906101000a900473ffffffffffffffffffffffffffffffffffffffff1673ffffffffffffffffffffffffffffffffffffffff1663b0ff4603856040518263ffffffff1660e01b8152600401611fc1919061536d565b60206040518083038186803b158015611fd957600080fd5b505afa158015611fed573d6000803e3d6000fd5b505050506040513d601f19601f82011682018060405250810190612011919061463d565b90505b600060055414156120295760009150506121b4565b600060066000878152602001908152602001600020549050600481815481106120555761205461589b565b5b90600052602060002090600a020160040160009054906101000a900473ffffffffffffffffffffffffffffffffffffffff1673ffffffffffffffffffffffffffffffffffffffff168273ffffffffffffffffffffffffffffffffffffffff1614156120c5576001925050506121b4565b60005b600482815481106120dc576120db61589b565b5b90600052602060002090600a0201600901805490508110156121ac576004818154811061210c5761210b61589b565b5b90600052602060002090600a0201600901818154811061212f5761212e61589b565b5b9060005260206000200160009054906101000a900473ffffffffffffffffffffffffffffffffffffffff1673ffffffffffffffffffffffffffffffffffffffff168373ffffffffffffffffffffffffffffffffffffffff16141561219957600193505050506121b4565b80806121a4906157c5565b9150506120c8565b506000925050505b9392505050565b60026000541415612201576040517f08c379a00000000000000000000000000000000000000000000000000000000081526004016121f8906152ed565b60405180910390fd5b60026000819055506000600660008481526020019081526020016000205490506000600260009054906101000a900473ffffffffffffffffffffffffffffffffffffffff1673ffffffffffffffffffffffffffffffffffffffff1663b9971b5d846040518263ffffffff1660e01b815260040161227e919061536d565b60206040518083038186803b15801561229657600080fd5b505afa1580156122aa573d6000803e3d6000fd5b505050506040513d601f19601f820116820180604052508101906122ce919061463d565b9050600482815481106122e4576122e361589b565b5b90600052602060002090600a020160040160009054906101000a900473ffffffffffffffffffffffffffffffffffffffff1673ffffffffffffffffffffffffffffffffffffffff163373ffffffffffffffffffffffffffffffffffffffff16148061239c5750600d60009054906101000a900473ffffffffffffffffffffffffffffffffffffffff1673ffffffffffffffffffffffffffffffffffffffff163373ffffffffffffffffffffffffffffffffffffffff16145b806123d257508073ffffffffffffffffffffffffffffffffffffffff163373ffffffffffffffffffffffffffffffffffffffff16145b612411576040517f08c379a00000000000000000000000000000000000000000000000000000000081526004016124089061516d565b60405180910390fd5b60086000848152602001908152602001600020548414612466576040517f08c379a000000000000000000000000000000000000000000000000000000000815260040161245d9061518d565b60405180910390fd5b6000600760008581526020019081526020016000205490506001600484815481106124945761249361589b565b5b90600052602060002090600a0201600601541115612682576000600484815481106124c2576124c161589b565b5b90600052602060002090600a020160070182815481106124e5576124e461589b565b5b90600052602060002001549050600484815481106125065761250561589b565b5b90600052602060002090600a020160070160016004868154811061252d5761252c61589b565b5b90600052602060002090600a02016007018054905061254c919061567a565b8154811061255d5761255c61589b565b5b90600052602060002001546004858154811061257c5761257b61589b565b5b90600052602060002090600a0201600701838154811061259f5761259e61589b565b5b906000526020600020018190555080600485815481106125c2576125c161589b565b5b90600052602060002090600a02016007016001600487815481106125e9576125e861589b565b5b90600052602060002090600a020160070180549050612608919061567a565b815481106126195761261861589b565b5b90600052602060002001819055508160076000600487815481106126405761263f61589b565b5b90600052602060002090600a020160070185815481106126635761266261589b565b5b9060005260206000200154815260200190815260200160002081905550505b600483815481106126965761269561589b565b5b90600052602060002090600a02016007018054806126b7576126b661586c565b5b600190038181906000526020600020016000905590556001600484815481106126e3576126e261589b565b5b90600052602060002090600a0201600601546126ff919061567a565b600484815481106127135761271261589b565b5b90600052602060002090600a020160060181905550600760008581526020019081526020016000206000905560086000858152602001908152602001600020600090557f98d4a31e04e17141aa78834b378eb654b19e1b2172cb01bfccbc979277210f9e85856004868154811061278d5761278c61589b565b5b90600052602060002090600a020160040160009054906101000a900473ffffffffffffffffffffffffffffffffffffffff166040516127ce939291906154b1565b60405180910390a150505060016000819055505050565b600060066000878152602001908152602001600020549050600481815481106128115761281061589b565b5b90600052602060002090600a020160040160009054906101000a900473ffffffffffffffffffffffffffffffffffffffff1673ffffffffffffffffffffffffffffffffffffffff163373ffffffffffffffffffffffffffffffffffffffff1614806128ba575085600c60003373ffffffffffffffffffffffffffffffffffffffff1673ffffffffffffffffffffffffffffffffffffffff16815260200190815260200160002054145b6128f9576040517f08c379a00000000000000000000000000000000000000000000000000000000081526004016128f09061532d565b60405180910390fd5b6000600260009054906101000a900473ffffffffffffffffffffffffffffffffffffffff1673ffffffffffffffffffffffffffffffffffffffff1663e6b309d587878733886040518663ffffffff1660e01b815260040161295e959493929190615085565b602060405180830381600087803b15801561297857600080fd5b505af115801561298c573d6000803e3d6000fd5b505050506040513d601f19601f820116820180604052508101906129b091906147a6565b90506129bc878261070b565b50505050505050565b60018060000154905081565b606060006005541415612a19576040517f08c379a0000000000000000000000000000000000000000000000000000000008152600401612a109061528d565b60405180910390fd5b60006006600084815260200190815260200160002054905060048181548110612a4557612a4461589b565b5b90600052602060002090600a0201600901805480602002602001604051908101604052809291908181526020018280548015612ad657602002820191906000526020600020905b8160009054906101000a900473ffffffffffffffffffffffffffffffffffffffff1673ffffffffffffffffffffffffffffffffffffffff1681526020019060010190808311612a8c575b5050505050915050919050565b600f60009054906101000a900473ffffffffffffffffffffffffffffffffffffffff1673ffffffffffffffffffffffffffffffffffffffff163373ffffffffffffffffffffffffffffffffffffffff1614612b73576040517f08c379a0000000000000000000000000000000000000000000000000000000008152600401612b6a9061510d565b60405180910390fd5b600060066000838152602001908152602001600020549050600081141580612bbf57508160048281548110612bab57612baa61589b565b5b90600052602060002090600a020160000154145b612bfe576040517f08c379a0000000000000000000000000000000000000000000000000000000008152600401612bf59061534d565b60405180910390fd5b600060048281548110612c1457612c1361589b565b5b90600052602060002090600a0201600901805490509050600060048381548110612c4157612c4061589b565b5b90600052602060002090600a020160040160009054906101000a900473ffffffffffffffffffffffffffffffffffffffff16905060005b82811015612e0157600060048581548110612c9657612c9561589b565b5b90600052602060002090600a020160090160018386612cb5919061567a565b612cbf919061567a565b81548110612cd057612ccf61589b565b5b9060005260206000200160009054906101000a900473ffffffffffffffffffffffffffffffffffffffff16905060048581548110612d1157612d1061589b565b5b90600052602060002090600a0201600901805480612d3257612d3161586c565b5b6001900381819060005260206000200160006101000a81549073ffffffffffffffffffffffffffffffffffffffff02191690559055600b60008273ffffffffffffffffffffffffffffffffffffffff1673ffffffffffffffffffffffffffffffffffffffff16815260200190815260200160002060009055600c60008273ffffffffffffffffffffffffffffffffffffffff1673ffffffffffffffffffffffffffffffffffffffff16815260200190815260200160002060009055508080612df9906157c5565b915050612c78565b506001600480549050111561340657600060048481548110612e2657612e2561589b565b5b90600052602060002090600a02016040518061014001604052908160008201548152602001600182018054612e5a90615762565b80601f0160208091040260200160405190810160405280929190818152602001828054612e8690615762565b8015612ed35780601f10612ea857610100808354040283529160200191612ed3565b820191906000526020600020905b815481529060010190602001808311612eb657829003601f168201915b50505050508152602001600282018054612eec90615762565b80601f0160208091040260200160405190810160405280929190818152602001828054612f1890615762565b8015612f655780601f10612f3a57610100808354040283529160200191612f65565b820191906000526020600020905b815481529060010190602001808311612f4857829003601f168201915b50505050508152602001600382015481526020016004820160009054906101000a900473ffffffffffffffffffffffffffffffffffffffff1673ffffffffffffffffffffffffffffffffffffffff1673ffffffffffffffffffffffffffffffffffffffff16815260200160058201548152602001600682015481526020016007820180548060200260200160405190810160405280929190818152602001828054801561303157602002820191906000526020600020905b81548152602001906001019080831161301d575b505050505081526020016008820180548060200260200160405190810160405280929190818152602001828054801561308957602002820191906000526020600020905b815481526020019060010190808311613075575b505050505081526020016009820180548060200260200160405190810160405280929190818152602001828054801561311757602002820191906000526020600020905b8160009054906101000a900473ffffffffffffffffffffffffffffffffffffffff1673ffffffffffffffffffffffffffffffffffffffff16815260200190600101908083116130cd575b505050505081525050905060046001600480549050613136919061567a565b815481106131475761314661589b565b5b90600052602060002090600a0201600485815481106131695761316861589b565b5b90600052602060002090600a020160008201548160000155600182018160010190805461319590615762565b6131a09291906140ce565b5060028201816002019080546131b590615762565b6131c09291906140ce565b50600382015481600301556004820160009054906101000a900473ffffffffffffffffffffffffffffffffffffffff168160040160006101000a81548173ffffffffffffffffffffffffffffffffffffffff021916908373ffffffffffffffffffffffffffffffffffffffff1602179055506005820154816005015560068201548160060155600782018160070190805461325c92919061415b565b50600882018160080190805461327392919061415b565b50600982018160090190805461328a9291906141ad565b5090505080600460016004805490506132a3919061567a565b815481106132b4576132b361589b565b5b90600052602060002090600a02016000820151816000015560208201518160010190805190602001906132e89291906141ff565b5060408201518160020190805190602001906133059291906141ff565b506060820151816003015560808201518160040160006101000a81548173ffffffffffffffffffffffffffffffffffffffff021916908373ffffffffffffffffffffffffffffffffffffffff16021790555060a0820151816005015560c0820151816006015560e0820151816007019080519060200190613387929190614285565b506101008201518160080190805190602001906133a5929190614285565b506101208201518160090190805190602001906133c39291906142d2565b509050508360066000600487815481106133e0576133df61589b565b5b90600052602060002090600a020160000154815260200190815260200160002081905550505b6006600085815260200190815260200160002060009055600480548061342f5761342e61586c565b5b60019003818190600052602060002090600a020160008082016000905560018201600061345c919061435c565b60028201600061346c919061435c565b60038201600090556004820160006101000a81549073ffffffffffffffffffffffffffffffffffffffff0219169055600582016000905560068201600090556007820160006134bb919061439c565b6008820160006134cb919061439c565b6009820160006134db91906143bd565b50509055600560008154809291906134f290615738565b91905055507f1cb8aa3ca92302a65c6f632c6a035719008427cd62e94e28a6b3fab0ace1f3358482604051613528929190615388565b60405180910390a150505050565b600060066000848152602001908152602001600020549050600481815481106135625761356161589b565b5b90600052602060002090600a020160040160009054906101000a900473ffffffffffffffffffffffffffffffffffffffff1673ffffffffffffffffffffffffffffffffffffffff163373ffffffffffffffffffffffffffffffffffffffff1614613601576040517f08c379a00000000000000000000000000000000000000000000000000000000081526004016135f8906151ed565b60405180910390fd5b81600482815481106136165761361561589b565b5b90600052602060002090600a0201600301819055507f246e9f782d7419723b78e9f62a1c7ec3b8d24aab5605341a925e27bf74c789648383600484815481106136625761366161589b565b5b90600052602060002090600a020160040160009054906101000a900473ffffffffffffffffffffffffffffffffffffffff166040516136a3939291906154b1565b60405180910390a1505050565b600481815481106136c057600080fd5b90600052602060002090600a02016000915090508060000154908060010180546136e990615762565b80601f016020809104026020016040519081016040528092919081815260200182805461371590615762565b80156137625780601f1061373757610100808354040283529160200191613762565b820191906000526020600020905b81548152906001019060200180831161374557829003601f168201915b50505050509080600201805461377790615762565b80601f01602080910402602001604051908101604052809291908181526020018280546137a390615762565b80156137f05780601f106137c5576101008083540402835291602001916137f0565b820191906000526020600020905b8154815290600101906020018083116137d357829003601f168201915b5050505050908060030154908060040160009054906101000a900473ffffffffffffffffffffffffffffffffffffffff16908060050154908060060154905087565b6000600660008481526020019081526020016000205490506004818154811061385e5761385d61589b565b5b90600052602060002090600a020160040160009054906101000a900473ffffffffffffffffffffffffffffffffffffffff1673ffffffffffffffffffffffffffffffffffffffff163373ffffffffffffffffffffffffffffffffffffffff16146138fd576040517f08c379a00000000000000000000000000000000000000000000000000000000081526004016138f49061530d565b60405180910390fd5b61390983836000611eab565b613948576040517f08c379a000000000000000000000000000000000000000000000000000000000815260040161393f906152ad565b60405180910390fd5b6004818154811061395c5761395b61589b565b5b90600052602060002090600a02016008018290806001815401808255809150506001900390600052602060002001600090919091909150556001600482815481106139aa576139a961589b565b5b90600052602060002090600a0201600501546139c69190615624565b600482815481106139da576139d961589b565b5b90600052602060002090600a02016005018190555082600a600084815260200190815260200160002081905550600160048281548110613a1d57613a1c61589b565b5b90600052602060002090600a020160080180549050613a3c919061567a565b60096000848152602001908152602001600020819055507f48cc45faa1194129383e9c6da7ac24f044471e7bfec36defd5c013eb56c1730b838360048481548110613a8a57613a8961589b565b5b90600052602060002090600a020160040160009054906101000a900473ffffffffffffffffffffffffffffffffffffffff16604051613acb939291906154b1565b60405180910390a1505050565b60005b8151811015613b1b57613b0883838381518110613afb57613afa61589b565b5b6020026020010151613832565b8080613b13906157c5565b915050613adb565b505050565b60055481565b60026000541415613b6c576040517f08c379a0000000000000000000000000000000000000000000000000000000008152600401613b63906152ed565b60405180910390fd5b60026000819055506000600660008a815260200190815260200160002054905060048181548110613ba057613b9f61589b565b5b90600052602060002090600a020160040160009054906101000a900473ffffffffffffffffffffffffffffffffffffffff1673ffffffffffffffffffffffffffffffffffffffff163373ffffffffffffffffffffffffffffffffffffffff1614613c3f576040517f08c379a0000000000000000000000000000000000000000000000000000000008152600401613c369061512d565b60405180910390fd5b6000600360009054906101000a900473ffffffffffffffffffffffffffffffffffffffff1673ffffffffffffffffffffffffffffffffffffffff1663c220a0de8a8a8a8a8a8a8a336040518963ffffffff1660e01b8152600401613caa989796959493929190614fd6565b602060405180830381600087803b158015613cc457600080fd5b505af1158015613cd8573d6000803e3d6000fd5b505050506040513d601f19601f82011682018060405250810190613cfc91906147a6565b9050613d088a82613832565b505060016000819055505050505050505050565b600c6020528060005260406000206000915090505481565b6000600f60009054906101000a900473ffffffffffffffffffffffffffffffffffffffff1673ffffffffffffffffffffffffffffffffffffffff163373ffffffffffffffffffffffffffffffffffffffff1614613dc6576040517f08c379a0000000000000000000000000000000000000000000000000000000008152600401613dbd9061510d565b60405180910390fd5b613dd060016140aa565b60606000604051806101400160405280613dea60016140c0565b81526020018981526020018881526020018781526020018673ffffffffffffffffffffffffffffffffffffffff1681526020016000815260200160008152602001838152602001600067ffffffffffffffff811115613e4c57613e4b6158ca565b5b604051908082528060200260200182016040528015613e7a5781602001602082028036833780820191505090505b50815260200185815250905060048190806001815401808255809150506001900390600052602060002090600a0201600090919091909150600082015181600001556020820151816001019080519060200190613ed89291906141ff565b506040820151816002019080519060200190613ef59291906141ff565b506060820151816003015560808201518160040160006101000a81548173ffffffffffffffffffffffffffffffffffffffff021916908373ffffffffffffffffffffffffffffffffffffffff16021790555060a0820151816005015560c0820151816006015560e0820151816007019080519060200190613f77929190614285565b50610100820151816008019080519060200190613f95929190614285565b50610120820151816009019080519060200190613fb39291906142d2565b5050506001600480549050613fc8919061567a565b60066000613fd660016140c0565b81526020019081526020016000208190555060005b84518110156140345761402161400160016140c0565b8683815181106140145761401361589b565b5b602002602001015161155b565b808061402c906157c5565b915050613feb565b5060056000815480929190614048906157c5565b91905055507f4c10057cafed8c5c24b3d9d40ea131f21d44530fd182282f0dc9a8355812706961407860016140c0565b89888860405161408b9493929190615465565b60405180910390a161409d60016140c0565b9250505095945050505050565b6001816000016000828254019250508190555050565b600081600001549050919050565b8280546140da90615762565b90600052602060002090601f0160209004810192826140fc576000855561414a565b82601f1061410d578054855561414a565b8280016001018555821561414a57600052602060002091601f016020900482015b8281111561414957825482559160010191906001019061412e565b5b50905061415791906143de565b5090565b82805482825590600052602060002090810192821561419c5760005260206000209182015b8281111561419b578254825591600101919060010190614180565b5b5090506141a991906143de565b5090565b8280548282559060005260206000209081019282156141ee5760005260206000209182015b828111156141ed5782548255916001019190600101906141d2565b5b5090506141fb91906143de565b5090565b82805461420b90615762565b90600052602060002090601f01602090048101928261422d5760008555614274565b82601f1061424657805160ff1916838001178555614274565b82800160010185558215614274579182015b82811115614273578251825591602001919060010190614258565b5b50905061428191906143de565b5090565b8280548282559060005260206000209081019282156142c1579160200282015b828111156142c05782518255916020019190600101906142a5565b5b5090506142ce91906143de565b5090565b82805482825590600052602060002090810192821561434b579160200282015b8281111561434a5782518260006101000a81548173ffffffffffffffffffffffffffffffffffffffff021916908373ffffffffffffffffffffffffffffffffffffffff160217905550916020019190600101906142f2565b5b50905061435891906143de565b5090565b50805461436890615762565b6000825580601f1061437a5750614399565b601f01602090049060005260206000209081019061439891906143de565b5b50565b50805460008255906000526020600020908101906143ba91906143de565b50565b50805460008255906000526020600020908101906143db91906143de565b50565b5b808211156143f75760008160009055506001016143df565b5090565b600061440e6144098461550d565b6154e8565b90508083825260208201905082856020860282011115614431576144306158fe565b5b60005b858110156144615781614447888261451d565b845260208401935060208301925050600181019050614434565b5050509392505050565b600061447e61447984615539565b6154e8565b905080838252602082019050828560208602820111156144a1576144a06158fe565b5b60005b858110156144d157816144b788826145e6565b8452602084019350602083019250506001810190506144a4565b5050509392505050565b60006144ee6144e984615565565b6154e8565b90508281526020810184848401111561450a57614509615903565b5b6145158482856156f6565b509392505050565b60008135905061452c81615edd565b92915050565b60008151905061454181615edd565b92915050565b600082601f83011261455c5761455b6158f9565b5b813561456c8482602086016143fb565b91505092915050565b600082601f83011261458a576145896158f9565b5b813561459a84826020860161446b565b91505092915050565b6000813590506145b281615ef4565b92915050565b600082601f8301126145cd576145cc6158f9565b5b81356145dd8482602086016144db565b91505092915050565b6000813590506145f581615f0b565b92915050565b60008151905061460a81615f0b565b92915050565b6000602082840312156146265761462561590d565b5b60006146348482850161451d565b91505092915050565b6000602082840312156146535761465261590d565b5b600061466184828501614532565b91505092915050565b600080604083850312156146815761468061590d565b5b600061468f8582860161451d565b92505060206146a08582860161451d565b9150509250929050565b600080600080600060a086880312156146c6576146c561590d565b5b600086013567ffffffffffffffff8111156146e4576146e3615908565b5b6146f0888289016145b8565b955050602086013567ffffffffffffffff81111561471157614710615908565b5b61471d888289016145b8565b945050604061472e888289016145e6565b935050606061473f8882890161451d565b925050608086013567ffffffffffffffff8111156147605761475f615908565b5b61476c88828901614547565b9150509295509295909350565b60006020828403121561478f5761478e61590d565b5b600061479d848285016145e6565b91505092915050565b6000602082840312156147bc576147bb61590d565b5b60006147ca848285016145fb565b91505092915050565b600080604083850312156147ea576147e961590d565b5b60006147f8858286016145e6565b92505060206148098582860161451d565b9150509250929050565b6000806040838503121561482a5761482961590d565b5b6000614838858286016145e6565b925050602083013567ffffffffffffffff81111561485957614858615908565b5b61486585828601614575565b9150509250929050565b600080600080600080600080610100898b0312156148905761488f61590d565b5b600061489e8b828c016145e6565b985050602089013567ffffffffffffffff8111156148bf576148be615908565b5b6148cb8b828c016145b8565b975050604089013567ffffffffffffffff8111156148ec576148eb615908565b5b6148f88b828c016145b8565b965050606089013567ffffffffffffffff81111561491957614918615908565b5b6149258b828c016145b8565b955050608089013567ffffffffffffffff81111561494657614945615908565b5b6149528b828c016145b8565b94505060a089013567ffffffffffffffff81111561497357614972615908565b5b61497f8b828c016145b8565b93505060c089013567ffffffffffffffff8111156149a05761499f615908565b5b6149ac8b828c01614575565b92505060e089013567ffffffffffffffff8111156149cd576149cc615908565b5b6149d98b828c016145b8565b9150509295985092959890939650565b600080600080600060a08688031215614a0557614a0461590d565b5b6000614a13888289016145e6565b955050602086013567ffffffffffffffff811115614a3457614a33615908565b5b614a40888289016145b8565b9450506040614a51888289016145e6565b935050606086013567ffffffffffffffff811115614a7257614a71615908565b5b614a7e888289016145b8565b925050608086013567ffffffffffffffff811115614a9f57614a9e615908565b5b614aab888289016145b8565b9150509295509295909350565b60008060408385031215614acf57614ace61590d565b5b6000614add858286016145e6565b9250506020614aee858286016145e6565b9150509250929050565b600080600060608486031215614b1157614b1061590d565b5b6000614b1f868287016145e6565b9350506020614b30868287016145e6565b9250506040614b41868287016145a3565b9150509250925092565b6000614b578383614b7b565b60208301905092915050565b6000614b6f8383614f59565b60208301905092915050565b614b84816156ae565b82525050565b614b93816156ae565b82525050565b6000614ba4826155b6565b614bae81856155f1565b9350614bb983615596565b8060005b83811015614bea578151614bd18882614b4b565b9750614bdc836155d7565b925050600181019050614bbd565b5085935050505092915050565b6000614c02826155c1565b614c0c8185615602565b9350614c17836155a6565b8060005b83811015614c48578151614c2f8882614b63565b9750614c3a836155e4565b925050600181019050614c1b565b5085935050505092915050565b614c5e816156c0565b82525050565b6000614c6f826155cc565b614c798185615613565b9350614c89818560208601615705565b614c9281615912565b840191505092915050565b6000614caa602f83615613565b9150614cb582615923565b604082019050919050565b6000614ccd601083615613565b9150614cd882615972565b602082019050919050565b6000614cf0603383615613565b9150614cfb8261599b565b604082019050919050565b6000614d13603383615613565b9150614d1e826159ea565b604082019050919050565b6000614d36602d83615613565b9150614d4182615a39565b604082019050919050565b6000614d59602a83615613565b9150614d6482615a88565b604082019050919050565b6000614d7c603283615613565b9150614d8782615ad7565b604082019050919050565b6000614d9f603983615613565b9150614daa82615b26565b604082019050919050565b6000614dc2602683615613565b9150614dcd82615b75565b604082019050919050565b6000614de5603083615613565b9150614df082615bc4565b604082019050919050565b6000614e08603183615613565b9150614e1382615c13565b604082019050919050565b6000614e2b603483615613565b9150614e3682615c62565b604082019050919050565b6000614e4e602883615613565b9150614e5982615cb1565b604082019050919050565b6000614e71601483615613565b9150614e7c82615d00565b602082019050919050565b6000614e94604183615613565b9150614e9f82615d29565b606082019050919050565b6000614eb7603a83615613565b9150614ec282615d9e565b604082019050919050565b6000614eda601f83615613565b9150614ee582615ded565b602082019050919050565b6000614efd603083615613565b9150614f0882615e16565b604082019050919050565b6000614f20603983615613565b9150614f2b82615e65565b604082019050919050565b6000614f43601683615613565b9150614f4e82615eb4565b602082019050919050565b614f62816156ec565b82525050565b614f71816156ec565b82525050565b60006020820190508181036000830152614f918184614b99565b905092915050565b60006020820190508181036000830152614fb38184614bf7565b905092915050565b6000602082019050614fd06000830184614c55565b92915050565b6000610100820190508181036000830152614ff1818b614c64565b90508181036020830152615005818a614c64565b905081810360408301526150198189614c64565b9050818103606083015261502d8188614c64565b905081810360808301526150418187614c64565b905081810360a08301526150558186614bf7565b905081810360c08301526150698185614c64565b905061507860e0830184614b8a565b9998505050505050505050565b600060a082019050818103600083015261509f8188614c64565b90506150ae6020830187614f68565b81810360408301526150c08186614c64565b90506150cf6060830185614b8a565b81810360808301526150e18184614c64565b90509695505050505050565b6000602082019050818103600083015261510681614c9d565b9050919050565b6000602082019050818103600083015261512681614cc0565b9050919050565b6000602082019050818103600083015261514681614ce3565b9050919050565b6000602082019050818103600083015261516681614d06565b9050919050565b6000602082019050818103600083015261518681614d29565b9050919050565b600060208201905081810360008301526151a681614d4c565b9050919050565b600060208201905081810360008301526151c681614d6f565b9050919050565b600060208201905081810360008301526151e681614d92565b9050919050565b6000602082019050818103600083015261520681614db5565b9050919050565b6000602082019050818103600083015261522681614dd8565b9050919050565b6000602082019050818103600083015261524681614dfb565b9050919050565b6000602082019050818103600083015261526681614e1e565b9050919050565b6000602082019050818103600083015261528681614e41565b9050919050565b600060208201905081810360008301526152a681614e64565b9050919050565b600060208201905081810360008301526152c681614e87565b9050919050565b600060208201905081810360008301526152e681614eaa565b9050919050565b6000602082019050818103600083015261530681614ecd565b9050919050565b6000602082019050818103600083015261532681614ef0565b9050919050565b6000602082019050818103600083015261534681614f13565b9050919050565b6000602082019050818103600083015261536681614f36565b9050919050565b60006020820190506153826000830184614f68565b92915050565b600060408201905061539d6000830185614f68565b6153aa6020830184614b8a565b9392505050565b60006060820190506153c66000830186614f68565b6153d36020830185614b8a565b6153e06040830184614b8a565b949350505050565b600060e0820190506153fd600083018a614f68565b818103602083015261540f8189614c64565b905081810360408301526154238188614c64565b90506154326060830187614f68565b61543f6080830186614b8a565b61544c60a0830185614f68565b61545960c0830184614f68565b98975050505050505050565b600060808201905061547a6000830187614f68565b818103602083015261548c8186614c64565b905061549b6040830185614f68565b6154a86060830184614b8a565b95945050505050565b60006060820190506154c66000830186614f68565b6154d36020830185614f68565b6154e06040830184614b8a565b949350505050565b60006154f2615503565b90506154fe8282615794565b919050565b6000604051905090565b600067ffffffffffffffff821115615528576155276158ca565b5b602082029050602081019050919050565b600067ffffffffffffffff821115615554576155536158ca565b5b602082029050602081019050919050565b600067ffffffffffffffff8211156155805761557f6158ca565b5b61558982615912565b9050602081019050919050565b6000819050602082019050919050565b6000819050602082019050919050565b600081519050919050565b600081519050919050565b600081519050919050565b6000602082019050919050565b6000602082019050919050565b600082825260208201905092915050565b600082825260208201905092915050565b600082825260208201905092915050565b600061562f826156ec565b915061563a836156ec565b9250827fffffffffffffffffffffffffffffffffffffffffffffffffffffffffffffffff0382111561566f5761566e61580e565b5b828201905092915050565b6000615685826156ec565b9150615690836156ec565b9250828210156156a3576156a261580e565b5b828203905092915050565b60006156b9826156cc565b9050919050565b60008115159050919050565b600073ffffffffffffffffffffffffffffffffffffffff82169050919050565b6000819050919050565b82818337600083830152505050565b60005b83811015615723578082015181840152602081019050615708565b83811115615732576000848401525b50505050565b6000615743826156ec565b915060008214156157575761575661580e565b5b600182039050919050565b6000600282049050600182168061577a57607f821691505b6020821081141561578e5761578d61583d565b5b50919050565b61579d82615912565b810181811067ffffffffffffffff821117156157bc576157bb6158ca565b5b80604052505050565b60006157d0826156ec565b91507fffffffffffffffffffffffffffffffffffffffffffffffffffffffffffffffff8214156158035761580261580e565b5b600182019050919050565b7f4e487b7100000000000000000000000000000000000000000000000000000000600052601160045260246000fd5b7f4e487b7100000000000000000000000000000000000000000000000000000000600052602260045260246000fd5b7f4e487b7100000000000000000000000000000000000000000000000000000000600052603160045260246000fd5b7f4e487b7100000000000000000000000000000000000000000000000000000000600052603260045260246000fd5b7f4e487b7100000000000000000000000000000000000000000000000000000000600052604160045260246000fd5b600080fd5b600080fd5b600080fd5b600080fd5b600080fd5b6000601f19601f8301169050919050565b7f4f6e6c792061646d696e2063616e2061646420616e20656d706c6f796565206960008201527f6e2074686520627573696e6573732e0000000000000000000000000000000000602082015250565b7f4f6e6c792073757065722061646d696e00000000000000000000000000000000600082015250565b7f4f6e6c792061646d696e2063616e20637265617465206120636f6c6c6563746960008201527f6f6e20696e2074686520627573696e6573732e00000000000000000000000000602082015250565b7f4f6e6c792061646d696e2063616e2072656d6f7665206120636f6c6c6563746960008201527f6f6e2066726f6d206120627573696e6573732e00000000000000000000000000602082015250565b7f4f6e6c792061646d696e2063616e2072656d6f766520616e206e66742066726f60008201527f6d206120627573696e6573732e00000000000000000000000000000000000000602082015250565b7f54686973204e465420646f65736e27742062656c6f6e677320746f207468697360008201527f20627573696e6573732e00000000000000000000000000000000000000000000602082015250565b7f54686973206164647265737320697320616c726561647920616e20656d706c6f60008201527f79656520696e206120627573696e6573732e0000000000000000000000000000602082015250565b7f4f6e6c792061646d696e206f7220616e20656d706c6f7965652063616e20616460008201527f6420616e206e667420746f2074686520627573696e6573732e00000000000000602082015250565b7f4f6e6c792061646d696e2063616e20757064617465207468652066656520706560008201527f7263656e742e0000000000000000000000000000000000000000000000000000602082015250565b7f5468697320636f6c6c656374696f6e20646f65736e27742062656c6f6e67207460008201527f6f207468697320627573696e6573732e00000000000000000000000000000000602082015250565b7f4f6e6c792073757065722061646d696e2063616e2073657420746865206d617260008201527f6b6574706c61636520616464726573732e000000000000000000000000000000602082015250565b7f4f6e6c792061646d696e2063616e2072656d6f766520616e20656d706c6f796560008201527f652066726f6d2074686520627573696e6573732e000000000000000000000000602082015250565b7f456d706c6f79656520646f65736e277420657869737420696e2074686973206260008201527f7573696e6573732e000000000000000000000000000000000000000000000000602082015250565b7f496e76616c696420627573696e6573732049442e000000000000000000000000600082015250565b7f596f752063616e20616464206f6e6c7920636f6c6c656374696f6e73206f776e60008201527f6564206279207468652061646d696e206f722074686520656d706c6f7965657360208201527f2e00000000000000000000000000000000000000000000000000000000000000604082015250565b7f596f752063616e20616464206f6e6c79206e667473206f776e6564206279207460008201527f68652061646d696e206f722074686520656d706c6f796565732e000000000000602082015250565b7f5265656e7472616e637947756172643a207265656e7472616e742063616c6c00600082015250565b7f4f6e6c792061646d696e2063616e20616464206120636f6c6c656374696f6e2060008201527f746f2074686520627573696e6573732e00000000000000000000000000000000602082015250565b7f4f6e6c792061646d696e206f7220656d706c6f7965652063616e20637265617460008201527f6520616e206e667420746f2074686520627573696e6573732e00000000000000602082015250565b7f427573696e65737320646f65736e277420657869737400000000000000000000600082015250565b615ee6816156ae565b8114615ef157600080fd5b50565b615efd816156c0565b8114615f0857600080fd5b50565b615f14816156ec565b8114615f1f57600080fd5b5056fea2646970667358221220bc97718e0711167681f8f873687fe73b458d416a82c40efbd0a5e4348f9d2f1264736f6c63430008070033",
  "immutableReferences": {},
  "source": "//SPDX-License-Identifier: Unlicensed\r\n\r\npragma solidity ^0.8.4;\r\n\r\nimport './Definitions.sol';\r\nimport './Collections.sol';\r\nimport './NFT.sol';\r\nimport './Marketplace.sol';\r\nimport '@openzeppelin/contracts/security/ReentrancyGuard.sol';\r\n\r\n/**\r\nThis contract stores the details of all the businesses, that are defined by the\r\nDefinitions smart contract, generates ids for new businesses and maintains which \r\ncollection/nft is owned by which business. It supports the admin to add/remove \r\ncollections/nfts and manipulating the same.\r\n\r\n@author : Hritik Raheja\r\n*/\r\n\r\ncontract Businesses is ReentrancyGuard{\r\n\r\n    /**\r\n    1. _businessIdGenerator - allots a business Id to every newly created business.\r\n    2. nftContractInstance - is an instance of the NFT contract, i.e., used to call\r\n    the methods of the NFT contract.\r\n    3. collectionsContractInstance - is an instance of the Collections contract, i.e.,\r\n    used to call the methods of the Collections contract.\r\n    4. businesses - is array that stores the details of all businesses.\r\n    5. businessCount - is the current count of businesses in the contract.\r\n    6. businessIdToIndex - stores that which business is stored at which index in the\r\n    businesses array.\r\n    7. nftIdToIndex - stores which nft is stored at which index in its corresponding business.\r\n    8. nftIdToBusinessId - stores which nft is stored in which business.\r\n    9. collectionIdToIndex - stores which collection is stored at which index\r\n    in its corresponding business.\r\n    10. collectionIdToBusinessId - stores which collection is stored in which business.\r\n    11. employeesAddressToIndex - stores which employee is stored at which index in the \r\n    employees array defined in the Business struct in the Definitions smart contract.\r\n    12. employeeAddressToBusinessId - stores which employee belongs to which business.\r\n    13. marketPlaceContractAddress - The address of the deployed marketplace contract.\r\n    14. marketplaceContractInstance - is an instance of the Marketplace contract, i.e., used to\r\n    fetch the superadmin address.\r\n    */\r\n    using Counters for Counters.Counter;\r\n    Counters.Counter public _businessIdGenerator;\r\n    NFT nftContractInstance;\r\n    Collections collectionsContractInstance;\r\n    Definitions.Business[] public businesses;\r\n    uint256 public businessCount;\r\n    mapping(uint256 => uint256) public businessIdToIndex;\r\n    mapping(uint256 => uint256) public nftIdToIndex;\r\n    mapping(uint256 => uint256) public nftIdToBusinessId;\r\n    mapping(uint256 => uint256) public collectionIdToIndex;\r\n    mapping(uint256 => uint256) public collectionIdToBusinessId;\r\n    mapping(address => uint256) public employeeAddressToIndex;\r\n    mapping(address => uint256) public employeeAddressToBusinessId;\r\n    address marketplaceContractAddress;\r\n    Marketplace marketplaceContractInstance;\r\n    address superAdmin;\r\n\r\n    event businessCreated(uint bId, string bName, uint feePercent, address admin);\r\n    event businessRemoved(uint bId, address admin);\r\n    event employeeAddedToBusiness(uint bId, address eAddress, address admin);\r\n    event employeeRemovedFromBusiness(uint bId, address eAddress, address admin);  \r\n    event collectionAddedToBusiness(uint bId, uint cId, address admin);\r\n    event nftAddedToBusiness(uint bId, uint nftId, address admin);\r\n    event collectionRemovedFromBusiness(uint bId, uint cId, address admin);\r\n    event nftRemovedFromBusiness(uint bId, uint nftId, address admin);\r\n    event businessFeeUpdated(uint bId, uint newFeePercent, address admin);\r\n\r\n    /**\r\n    This method sets the marketplace contract address for super admin validations.\r\n    This method is called for the first time when the marketplace contract is created, and \r\n    can be called again but only by the super admin itself.\r\n    @param _marketplaceContractAddress - The address of the deployed marketplace contract. \r\n    */\r\n    function setMarketplaceAddress(address _marketplaceContractAddress, address _superAdmin) public nonReentrant{\r\n        if(marketplaceContractAddress != address(0)){\r\n            require(msg.sender == marketplaceContractInstance.superAdmin() || \r\n            msg.sender == marketplaceContractAddress, \r\n            \"Only super admin can set the marketplace address.\");\r\n        } \r\n        marketplaceContractAddress = _marketplaceContractAddress;\r\n        marketplaceContractInstance = Marketplace(marketplaceContractAddress);\r\n        superAdmin = _superAdmin;\r\n    }\r\n\r\n    /**\r\n    The deployed NFT and Collections smart contract's addresses are provided as parameters\r\n    in the constructor in order to create the instances of the contracts.\r\n    */\r\n    constructor(address _nftContractAddress, address _collectionsContractAddress){\r\n        nftContractInstance = NFT(_nftContractAddress);\r\n        collectionsContractInstance = Collections(_collectionsContractAddress);\r\n    }\r\n\r\n    /**\r\n    This method creates a business, increments the businessCount, generates a new and unique\r\n    business Id, adds the business to the businesses array and maintains the mapping of \r\n    business Id to its corresponding index in the businesses array.\r\n    @param _bName - The name of the business to be created.\r\n    @param _bLogoUri - The logo uri of the business to be created.\r\n    @param _feePercent - The fee percentage charged by the business to be created.\r\n    @param _admin - The address of the business admin.\r\n    @param _employees - An array consisting of addresses of all employees in the business.\r\n    @return This method returns the id of the newly created business.\r\n    */\r\n    function addBusiness(string memory _bName, string memory _bLogoUri,\r\n    uint256 _feePercent, address _admin, address[] memory _employees) public returns(uint256){\r\n        require(msg.sender == superAdmin, \"Only super admin\");\r\n        _businessIdGenerator.increment();\r\n        uint256[] memory _emptyArray;\r\n        Definitions.Business memory _newBusiness = Definitions.Business(_businessIdGenerator.current(),\r\n     _bName, _bLogoUri, _feePercent, _admin, 0, 0, _emptyArray,\r\n        new uint256[](0),_employees);\r\n        businesses.push(_newBusiness);\r\n        businessIdToIndex[_businessIdGenerator.current()] = businesses.length - 1;\r\n        for(uint256 _i = 0; _i < _employees.length; _i++){\r\n           addEmployee(_businessIdGenerator.current(), _employees[_i]);\r\n        }\r\n        businessCount++;\r\n        emit businessCreated(_businessIdGenerator.current(), _bName, _feePercent, _admin);\r\n        return _businessIdGenerator.current();\r\n    }\r\n\r\n    /**\r\n    This method removes a business from the marketplace, i.e., it removes the business\r\n    from the businesses array, decrements the businessCount and removes the businessIdToindex \r\n    mapping for the particular business Id.\r\n    @param _bId - The id of the business to be removed.\r\n    */\r\n    function removeBusiness(uint256 _bId) public {\r\n        require(msg.sender == superAdmin, \"Only super admin\");\r\n        uint256 _i  = businessIdToIndex[_bId];\r\n        require(_i != 0 || businesses[_i].businessId == _bId, \"Business doesn't exist\");\r\n        uint256 _eCount = businesses[_i].employees.length;\r\n        address admin = businesses[_i].adminAddress;\r\n        for(uint256 _j = 0; _j < _eCount; _j++){\r\n            address _eAddress = businesses[_i].employees[_eCount - _j - 1];\r\n            businesses[_i].employees.pop();\r\n            delete employeeAddressToIndex[_eAddress];\r\n            delete employeeAddressToBusinessId[_eAddress];\r\n        }\r\n        if(businesses.length > 1){\r\n            Definitions.Business memory _temp = businesses[_i];\r\n            businesses[_i] = businesses[businesses.length - 1]; \r\n            businesses[businesses.length - 1] = _temp;\r\n            businessIdToIndex[businesses[_i].businessId] = _i;\r\n        }\r\n        delete businessIdToIndex[_bId];\r\n        businesses.pop();\r\n        businessCount--;\r\n        emit businessRemoved(_bId, admin);\r\n    }\r\n\r\n    /**\r\n    This method adds an already listed collection to a business.\r\n    @param _bId - The id of the business in which the collection is to be added.\r\n    @param _cId - The id of the collection which is to be added.\r\n    */\r\n    function addCollectionToBusiness(uint256 _bId, uint256 _cId) public{\r\n        uint256 _i = businessIdToIndex[_bId];\r\n        require(msg.sender == businesses[_i].adminAddress, \"Only admin can add a collection to the business.\");\r\n        require(collectionOrNftOwnedByOwnerOrEmployee(_bId, _cId, false), \"You can add only collections owned by the admin or the employees.\");\r\n        businesses[_i].collectionIds.push(_cId);\r\n        businesses[_i].collectionCount = businesses[_i].collectionCount + 1;\r\n        collectionIdToBusinessId[_cId] = _bId;\r\n        collectionIdToIndex[_cId] = businesses[_i].collectionIds.length - 1;\r\n        emit collectionAddedToBusiness(_bId, _cId, businesses[_i].adminAddress);\r\n    }\r\n\r\n    /**\r\n    This methods adds a number of already listed collections to a business.\r\n    @param _bId - The id of the business in which the collections are to be added.\r\n    @param _cIds - An array of ids of all collections which are to be added.\r\n    */\r\n    function addMultipleCollectionsToBusiness(uint256 _bId, uint256[] memory _cIds) public{\r\n        for(uint256 _i = 0; _i < _cIds.length; _i++){\r\n            addCollectionToBusiness(_bId, _cIds[_i]);\r\n        }\r\n    }\r\n\r\n    /**\r\n    This methods creates a new collection and adds it to a business.\r\n    @param _bId - The id of the business in which the collection is to be created.\r\n    @param _cName - The name of the collection which is to be created in the business.\r\n    @param _cCoverImageUri - The uri of the collection's cover image.\r\n    @param _cDescription - The description of the collection which is to be created.\r\n    @param _cOwnerName - The name of the collection's owner.\r\n    @param _tokenIds - An array containing ids of all nfts that are present in the collection.\r\n    @param _category - The category of the collection to be created.\r\n    */\r\n    function createCollectionInBusiness(uint256 _bId, string memory _cName, \r\n        string memory _cCoverImageUri, string memory _cBackgroundUri, string memory _cDescription, \r\n        string memory _cOwnerName, uint256[] memory _tokenIds, string memory _category) public nonReentrant{\r\n        uint256 _index = businessIdToIndex[_bId];\r\n        require(msg.sender == businesses[_index].adminAddress, \"Only admin can create a collection in the business.\");\r\n        uint256 _newCollectionId = collectionsContractInstance.createCollection(_cName,\r\n        _cCoverImageUri, _cBackgroundUri, _cDescription, _cOwnerName, \r\n        _tokenIds, _category, msg.sender);\r\n        addCollectionToBusiness(_bId, _newCollectionId);\r\n    }\r\n\r\n    /**\r\n    This method adds an already listed NFT to a business.\r\n    @param _bId - The id of the business in which the nft is to be added.\r\n    @param _nId - The id of the nft which is to be added.\r\n    */\r\n    function addNftToBusiness(uint256 _bId, uint256 _nId) public nonReentrant{\r\n        uint256 _i = businessIdToIndex[_bId];\r\n        address ownerAddress = nftContractInstance.getOwnerByNftId(_nId);\r\n        require(msg.sender == businesses[_i].adminAddress || employeeAddressToBusinessId[ownerAddress] == _bId, \"Only admin or an employee can add an nft to the business.\");\r\n        require(collectionOrNftOwnedByOwnerOrEmployee(_bId, _nId, true), \"You can add only nfts owned by the admin or the employees.\");\r\n        businesses[_i].nftIds.push(_nId);\r\n        businesses[_i].singleNftCount = businesses[_i].singleNftCount + 1;\r\n        nftIdToBusinessId[_nId] = _bId;\r\n        nftIdToIndex[_nId] = businesses[_i].nftIds.length - 1;\r\n        emit nftAddedToBusiness(_bId, _nId, businesses[_i].adminAddress);\r\n    }\r\n\r\n    /**\r\n    This methods adds a number of already listed nfts to a business.\r\n    @param _bId - The id of the business in which the nfts are to be added.\r\n    @param _nIds - An array of ids of all nfts which are to be added.\r\n    */\r\n    function addMultipleNftsToBusiness(uint256 _bId, uint256[] memory _nIds) public{\r\n        for(uint256 _i = 0; _i < _nIds.length; _i++){\r\n            addNftToBusiness(_bId, _nIds[_i]);\r\n        }\r\n    }\r\n\r\n    /**\r\n    This methods creates a new nft and adds it to a business.\r\n    @param _bId - The id of the business in which the nft is to be added.\r\n    @param _tokenUri - The token uri of the nft that is to be minted and added to the business.\r\n    @param _price -  The price of the nft that is to be minted and added to the business.\r\n    @param _category - The category of the nft that is to be minted and added to the business.\r\n    */\r\n    function createNftInBusiness(uint256 _bId ,string memory _tokenUri, uint256 _price,\r\n        string memory _category, string memory _coverUri) public{\r\n            uint256 _i = businessIdToIndex[_bId];\r\n            require(msg.sender == businesses[_i].adminAddress || employeeAddressToBusinessId[msg.sender] == _bId, \"Only admin or employee can create an nft to the business.\");\r\n            uint256 _newNftId = nftContractInstance.createNft(_tokenUri,\r\n            _price, _category, msg.sender, _coverUri);\r\n            addNftToBusiness(_bId, _newNftId);\r\n    }\r\n\r\n    /**\r\n    This method removes a collection from the business.\r\n    @param _bId - The id of the business from which the collection is to be removed.\r\n    @param _cId - The id of the collection which is to be removed.\r\n    */\r\n    function removeCollectionFromBusiness(uint256 _bId, uint256 _cId) public nonReentrant{\r\n        uint256 _i = businessIdToIndex[_bId];\r\n        address collectionOwner = collectionsContractInstance.getOwnerByCollectionId(_cId);\r\n        require(msg.sender == businesses[_i].adminAddress || msg.sender == marketplaceContractAddress || msg.sender == collectionOwner, \"Only admin can remove a collection from a business.\");\r\n        require(_bId == collectionIdToBusinessId[_cId], \"This collection doesn't belong to this business.\");\r\n        uint256 _cIndex = collectionIdToIndex[_cId];\r\n        if(businesses[_i].collectionCount > 1){\r\n            uint256 _temp = businesses[_i].collectionIds[_cIndex];\r\n            businesses[_i].collectionIds[_cIndex] = businesses[_i].collectionIds[businesses[_i].collectionCount - 1];\r\n            businesses[_i].collectionIds[businesses[_i].collectionCount - 1] = _temp;\r\n            collectionIdToIndex[businesses[_i].collectionIds[_cIndex]] = _cIndex;\r\n        }\r\n        businesses[_i].collectionIds.pop();\r\n        businesses[_i].collectionCount = businesses[_i].collectionCount - 1;\r\n        delete collectionIdToIndex[_cId];\r\n        delete collectionIdToBusinessId[_cId];\r\n        emit collectionRemovedFromBusiness(_bId, _cId, businesses[_i].adminAddress);\r\n    }\r\n\r\n    /**\r\n    This method removes a nft from the business.\r\n    @param _bId - The id of the business from which the nft is to be removed.\r\n    @param _nftId - The tokenId of the nft which is to be removed.\r\n    */\r\n    function removeNftFromBusiness(uint256 _bId, uint256 _nftId) public nonReentrant{\r\n        uint256 _i = businessIdToIndex[_bId];\r\n        address nftOwner = nftContractInstance.getOwnerByNftId(_nftId);\r\n        require(msg.sender == businesses[_i].adminAddress || msg.sender == marketplaceContractAddress || msg.sender == nftOwner, \"Only admin can remove an nft from a business.\");\r\n        require(_bId == nftIdToBusinessId[_nftId], \"This NFT doesn't belongs to this business.\");\r\n        uint256 _nftIndex = nftIdToIndex[_nftId];\r\n        if(businesses[_i].singleNftCount > 1){\r\n            uint256 _temp = businesses[_i].nftIds[_nftIndex];\r\n            businesses[_i].nftIds[_nftIndex] = businesses[_i].nftIds[businesses[_i].nftIds.length - 1];\r\n            businesses[_i].nftIds[businesses[_i].nftIds.length - 1] = _temp;\r\n            nftIdToIndex[businesses[_i].nftIds[_nftIndex]] = _nftIndex;\r\n        }\r\n        businesses[_i].nftIds.pop();\r\n        businesses[_i].singleNftCount = businesses[_i].singleNftCount - 1;\r\n        delete nftIdToIndex[_nftId];\r\n        delete nftIdToBusinessId[_nftId];\r\n        emit nftRemovedFromBusiness(_bId, _nftId, businesses[_i].adminAddress);\r\n    }\r\n\r\n    /**\r\n    This methods updates the feePercent of the business by the provided fee percent.\r\n    @param _bId - The id of the business whose fee percentage is to be updated.\r\n    @param _newFee - The updated fee percent.\r\n    */\r\n    function updateFeePercent(uint256 _bId, uint256 _newFee) public{\r\n        uint256 _i = businessIdToIndex[_bId];\r\n        require(msg.sender == businesses[_i].adminAddress, \"Only admin can update the fee percent.\");\r\n        businesses[_i].feePercent = _newFee; \r\n        emit businessFeeUpdated(_bId, _newFee, businesses[_i].adminAddress);\r\n    }\r\n\r\n    /**\r\n    This method adds an employee to a business.\r\n    @param _bId - The id of the business in which an employee is to be added.\r\n    @param _newEmployee - The address of the new eployee.\r\n    */\r\n    function addEmployee(uint256 _bId, address _newEmployee) public {\r\n        uint256 _i = businessIdToIndex[_bId];\r\n        require(msg.sender == businesses[_i].adminAddress, \"Only admin can add an employee in the business.\");\r\n        require(employeeAddressToBusinessId[_newEmployee] == 0, \"This address is already an employee in a business.\");\r\n        businesses[_i].employees.push(_newEmployee);\r\n        employeeAddressToBusinessId[_newEmployee] = _bId;\r\n        employeeAddressToIndex[_newEmployee] = businesses[_i].employees.length - 1;\r\n        emit employeeAddedToBusiness(_bId, _newEmployee, businesses[_i].adminAddress);\r\n    }\r\n\r\n    /**\r\n    This methods removes an employeee from a business.\r\n    @param _bId - The id of the business from which employee is to be removed.\r\n    @param _eAddress - The address of the employee which is to be removed.\r\n    */\r\n    function removeEmployee(uint256 _bId, address _eAddress) public {\r\n        uint256 _i = businessIdToIndex[_bId];\r\n        require(msg.sender == businesses[_i].adminAddress, \"Only admin can remove an employee from the business.\");\r\n        require(_bId == employeeAddressToBusinessId[_eAddress], \"Employee doesn't exist in this business.\");\r\n        uint256 _eIndex = employeeAddressToIndex[_eAddress];\r\n        address _temp = businesses[_i].employees[_eIndex];\r\n        businesses[_i].employees[_eIndex] = businesses[_i].employees[businesses[_i].employees.length - 1];\r\n        businesses[_i].employees[businesses[_i].employees.length - 1] = _temp;\r\n        businesses[_i].employees.pop();\r\n        delete employeeAddressToIndex[_eAddress];\r\n        delete employeeAddressToBusinessId[_eAddress];\r\n        if(businesses[_i].employees.length != 0){\r\n            employeeAddressToIndex[businesses[_i].employees[_eIndex]] = _eIndex;\r\n        }\r\n        emit employeeRemovedFromBusiness(_bId, _eAddress, businesses[_i].adminAddress);\r\n    }\r\n\r\n    /**\r\n    This method fetches the collections owned by a business.\r\n    @param _bId - The id of the business whose collections are to be fetched.\r\n    @return - An array containing ids of all collections owned by the business.\r\n    */\r\n    function getCollectionsInBusiness(uint256 _bId) public view returns(uint256[] memory){\r\n        require(businessCount != 0, \"Invalid business ID.\");\r\n        uint256 _i = businessIdToIndex[_bId];\r\n        return businesses[_i].collectionIds;\r\n    }\r\n\r\n    /**\r\n    This method fetches the nfts owned by a business.\r\n    @param _bId - The id of the business whose nfts are to be fetched.\r\n    @return - An array containing ids of all single nfts owned by the business.\r\n    */\r\n    function getNftsInBusiness(uint256 _bId) public view returns(uint256[] memory){\r\n        require(businessCount != 0, \"Invalid business ID.\");\r\n        uint256 _i = businessIdToIndex[_bId];\r\n        return businesses[_i].nftIds;\r\n    }\r\n\r\n    /**\r\n    This method fetches all the employee addresses that are working in a business.\r\n    @param _bId - The id of the business from which employee addresses are to be fetched.\r\n    @return - An array containing addresses of all employees in the business.\r\n    */\r\n    function getEmployeesinBusiness(uint256 _bId) public view returns(address[] memory){\r\n        require(businessCount != 0, \"Invalid business ID.\");\r\n        uint256 _i = businessIdToIndex[_bId];\r\n        return businesses[_i].employees;\r\n    }\r\n\r\n    /**\r\n    This method checks whether a collection or an nft is owned by the admin or any of the employees or not.\r\n    @param _bId - The id of the business to be checked.\r\n    @param _id - The id of the collection or NFT to checked.\r\n    @param isNft - The id is an nft or a collection. True values signifies nft and false signifies collection.\r\n    @return - Whether the id belongs to the business admin or an employee or not.\r\n    */\r\n    function collectionOrNftOwnedByOwnerOrEmployee(uint256 _bId, uint256 _id, bool isNft) public view returns(bool){\r\n        address _owner;\r\n        if(isNft){\r\n            _owner = nftContractInstance.getOwnerByNftId(_id);\r\n        } else {\r\n            _owner = collectionsContractInstance.getOwnerByCollectionId(_id);\r\n        }\r\n        if(businessCount == 0){\r\n            return false;\r\n        }\r\n        uint256 _i = businessIdToIndex[_bId];\r\n        if(_owner == businesses[_i].adminAddress){\r\n            return true;\r\n        }\r\n        for(uint256 _j = 0; _j < businesses[_i].employees.length; _j++){\r\n            if(_owner == businesses[_j].employees[_j]){\r\n                return true;\r\n            }\r\n        }\r\n        return false;\r\n    }\r\n}",
  "sourcePath": "C:\\Users\\91805\\Desktop\\apynif\\src\\contracts\\Businesses.sol",
  "compiler": {
    "name": "solc",
    "version": "0.8.7+commit.e28d00a7.Emscripten.clang"
  },
  "schemaVersion": "3.4.8",
  "updatedAt": "2022-10-10T08:34:38.653Z",
  "networkType": "ethereum",
  "devdoc": {
    "author": ": Hritik Raheja",
    "kind": "dev",
    "methods": {
      "addBusiness(string,string,uint256,address,address[])": {
        "params": {
          "_admin": "- The address of the business admin.",
          "_bLogoUri": "- The logo uri of the business to be created.",
          "_bName": "- The name of the business to be created.",
          "_employees": "- An array consisting of addresses of all employees in the business.",
          "_feePercent": "- The fee percentage charged by the business to be created."
        },
        "returns": {
          "_0": "This method returns the id of the newly created business."
        }
      },
      "addCollectionToBusiness(uint256,uint256)": {
        "params": {
          "_bId": "- The id of the business in which the collection is to be added.",
          "_cId": "- The id of the collection which is to be added."
        }
      },
      "addEmployee(uint256,address)": {
        "params": {
          "_bId": "- The id of the business in which an employee is to be added.",
          "_newEmployee": "- The address of the new eployee."
        }
      },
      "addMultipleCollectionsToBusiness(uint256,uint256[])": {
        "params": {
          "_bId": "- The id of the business in which the collections are to be added.",
          "_cIds": "- An array of ids of all collections which are to be added."
        }
      },
      "addMultipleNftsToBusiness(uint256,uint256[])": {
        "params": {
          "_bId": "- The id of the business in which the nfts are to be added.",
          "_nIds": "- An array of ids of all nfts which are to be added."
        }
      },
      "addNftToBusiness(uint256,uint256)": {
        "params": {
          "_bId": "- The id of the business in which the nft is to be added.",
          "_nId": "- The id of the nft which is to be added."
        }
      },
      "collectionOrNftOwnedByOwnerOrEmployee(uint256,uint256,bool)": {
        "params": {
          "_bId": "- The id of the business to be checked.",
          "_id": "- The id of the collection or NFT to checked.",
          "isNft": "- The id is an nft or a collection. True values signifies nft and false signifies collection."
        },
        "returns": {
          "_0": "- Whether the id belongs to the business admin or an employee or not."
        }
      },
      "createCollectionInBusiness(uint256,string,string,string,string,string,uint256[],string)": {
        "params": {
          "_bId": "- The id of the business in which the collection is to be created.",
          "_cCoverImageUri": "- The uri of the collection's cover image.",
          "_cDescription": "- The description of the collection which is to be created.",
          "_cName": "- The name of the collection which is to be created in the business.",
          "_cOwnerName": "- The name of the collection's owner.",
          "_category": "- The category of the collection to be created.",
          "_tokenIds": "- An array containing ids of all nfts that are present in the collection."
        }
      },
      "createNftInBusiness(uint256,string,uint256,string,string)": {
        "params": {
          "_bId": "- The id of the business in which the nft is to be added.",
          "_category": "- The category of the nft that is to be minted and added to the business.",
          "_price": "-  The price of the nft that is to be minted and added to the business.",
          "_tokenUri": "- The token uri of the nft that is to be minted and added to the business."
        }
      },
      "getCollectionsInBusiness(uint256)": {
        "params": {
          "_bId": "- The id of the business whose collections are to be fetched."
        },
        "returns": {
          "_0": "- An array containing ids of all collections owned by the business."
        }
      },
      "getEmployeesinBusiness(uint256)": {
        "params": {
          "_bId": "- The id of the business from which employee addresses are to be fetched."
        },
        "returns": {
          "_0": "- An array containing addresses of all employees in the business."
        }
      },
      "getNftsInBusiness(uint256)": {
        "params": {
          "_bId": "- The id of the business whose nfts are to be fetched."
        },
        "returns": {
          "_0": "- An array containing ids of all single nfts owned by the business."
        }
      },
      "removeBusiness(uint256)": {
        "params": {
          "_bId": "- The id of the business to be removed."
        }
      },
      "removeCollectionFromBusiness(uint256,uint256)": {
        "params": {
          "_bId": "- The id of the business from which the collection is to be removed.",
          "_cId": "- The id of the collection which is to be removed."
        }
      },
      "removeEmployee(uint256,address)": {
        "params": {
          "_bId": "- The id of the business from which employee is to be removed.",
          "_eAddress": "- The address of the employee which is to be removed."
        }
      },
      "removeNftFromBusiness(uint256,uint256)": {
        "params": {
          "_bId": "- The id of the business from which the nft is to be removed.",
          "_nftId": "- The tokenId of the nft which is to be removed."
        }
      },
      "setMarketplaceAddress(address,address)": {
        "params": {
          "_marketplaceContractAddress": "- The address of the deployed marketplace contract. "
        }
      },
      "updateFeePercent(uint256,uint256)": {
        "params": {
          "_bId": "- The id of the business whose fee percentage is to be updated.",
          "_newFee": "- The updated fee percent."
        }
      }
    },
    "version": 1
  },
  "userdoc": {
    "kind": "user",
    "methods": {
      "addBusiness(string,string,uint256,address,address[])": {
        "notice": "This method creates a business, increments the businessCount, generates a new and unique business Id, adds the business to the businesses array and maintains the mapping of  business Id to its corresponding index in the businesses array."
      },
      "addCollectionToBusiness(uint256,uint256)": {
        "notice": "This method adds an already listed collection to a business."
      },
      "addEmployee(uint256,address)": {
        "notice": "This method adds an employee to a business."
      },
      "addMultipleCollectionsToBusiness(uint256,uint256[])": {
        "notice": "This methods adds a number of already listed collections to a business."
      },
      "addMultipleNftsToBusiness(uint256,uint256[])": {
        "notice": "This methods adds a number of already listed nfts to a business."
      },
      "addNftToBusiness(uint256,uint256)": {
        "notice": "This method adds an already listed NFT to a business."
      },
      "collectionOrNftOwnedByOwnerOrEmployee(uint256,uint256,bool)": {
        "notice": "This method checks whether a collection or an nft is owned by the admin or any of the employees or not."
      },
      "constructor": {
        "notice": "The deployed NFT and Collections smart contract's addresses are provided as parameters in the constructor in order to create the instances of the contracts."
      },
      "createCollectionInBusiness(uint256,string,string,string,string,string,uint256[],string)": {
        "notice": "This methods creates a new collection and adds it to a business."
      },
      "createNftInBusiness(uint256,string,uint256,string,string)": {
        "notice": "This methods creates a new nft and adds it to a business."
      },
      "getCollectionsInBusiness(uint256)": {
        "notice": "This method fetches the collections owned by a business."
      },
      "getEmployeesinBusiness(uint256)": {
        "notice": "This method fetches all the employee addresses that are working in a business."
      },
      "getNftsInBusiness(uint256)": {
        "notice": "This method fetches the nfts owned by a business."
      },
      "removeBusiness(uint256)": {
        "notice": "This method removes a business from the marketplace, i.e., it removes the business from the businesses array, decrements the businessCount and removes the businessIdToindex  mapping for the particular business Id."
      },
      "removeCollectionFromBusiness(uint256,uint256)": {
        "notice": "This method removes a collection from the business."
      },
      "removeEmployee(uint256,address)": {
        "notice": "This methods removes an employeee from a business."
      },
      "removeNftFromBusiness(uint256,uint256)": {
        "notice": "This method removes a nft from the business."
      },
      "setMarketplaceAddress(address,address)": {
        "notice": "This method sets the marketplace contract address for super admin validations. This method is called for the first time when the marketplace contract is created, and  can be called again but only by the super admin itself."
      },
      "updateFeePercent(uint256,uint256)": {
        "notice": "This methods updates the feePercent of the business by the provided fee percent."
      }
    },
    "notice": "This contract stores the details of all the businesses, that are defined by the Definitions smart contract, generates ids for new businesses and maintains which  collection/nft is owned by which business. It supports the admin to add/remove  collections/nfts and manipulating the same.",
    "version": 1
  }
}